:100000000C9463000C948B000C948B000C948B006C
:100010000C948B000C948B000C948B000C948B0034
:100020000C948B000C948B000C948B000C948B0024
:100030000C948B000C948B000C948B000C948B0014
:100040000C944C080C948B000C9482090C94BA0903
:100050000C948B000C948B000C948B000C948B00F4
:100060000C94640D0C948B00000000002400270009
:100070002A0000000000250028002B0000000000DE
:1000800023002600290004040404040404040202DA
:100090000202020203030303030301020408102007
:1000A0004080010204081020010204081020000012
:1000B0000007000201000003040600000000000029
:1000C0000000740A600C11241FBECFEFD8E0DEBF21
:1000D000CDBF13E0A0E0B1E0E4EEF7E202C005908E
:1000E0000D92AA3BB107D9F715E0AAEBB3E001C026
:1000F0001D92AD3BB107E1F710E0C6ECD0E004C0C3
:100100002297FE010E940B11C23CD107C9F70E9441
:100110003D080C94F0130C940000682F83E495E0E4
:100120000E94F00B0895BC010097A9F0DC010D902E
:100130000020E9F7AD0141505040481B590BE091B8
:10014000DB04F091DC040280F381E02D8BED94E080
:1001500009959C0102C020E030E0C9010895EF92AA
:10016000FF920F931F93CF93DF938C01EB0183E4F6
:1001700095E0B8010E94460C7E018F2D90E00E9410
:100180008D00CE0190700E948D0083E495E00E9466
:100190005C0C83E495E0B80141E050E00E94380C2B
:1001A00083E495E00E94900B009729F083E495E0AA
:1001B0000E94990B01C08FEFDF91CF911F910F919A
:1001C000FF90EF9008959F92AF92BF92CF92DF92EF
:1001D000EF92FF920F931F93DF93CF9300D0CDB791
:1001E000DEB780E5898384E58A8383E495E00E9415
:1001F000200C7E010894E11CF11C83E0A82EB12C98
:10020000AC0EBD1E7BC08BED94E060E071E00E94FF
:10021000F80A8BED94E0B8014AE050E00E94810BAF
:100220008BED94E062E071E00E94F80AF7019080A3
:10023000892D90E0B8010E94AF00D82ECC24D09236
:10024000BB03C092BA03B8016F5F7F4F892D90E066
:100250000E94AF0090E08C299D299093BB0380936E
:10026000BA038BED94E065E071E00E94F80A6091BA
:10027000BA037091BB038BED94E040E150E00E9423
:10028000810B8BED94E068E071E00E94F80A6091C8
:10029000BA037091BB038BED94E04AE050E00E94FA
:1002A000810B8BED94E068E071E00E94F80A809188
:1002B000BC039091BD0301969093BD038093BC0352
:1002C0008530910549F48BED94E00E94030B109268
:1002D000BD031092BC0306C08BED94E06AE071E0B0
:1002E0000E94F80A0E5F1F4F003F110509F08BCFE7
:1002F0000894E11CF11CEA14FB0419F000E010E082
:1003000082CF8DE091E00E9493000F900F90CF91EB
:10031000DF911F910F91FF90EF90DF90CF90BF90F2
:10032000AF909F900895CF92DF92EF92FF920F933C
:100330001F93182F062F682F70E06F777070882733
:1003400077FD8095982F0E94F80F20E030E040E87C
:1003500053E40E9484106B017C01602F70E08827B9
:1003600077FD8095982F0E94F80F9B01AC016C2DB2
:100370007D2D8E2D9F2D0E942A0F20E030E040E23F
:1003800051E40E948E0F262F372F482F592FDA0164
:10039000C90117FDB058682F792F8A2F9B2F1F9105
:1003A0000F91FF90EF90DF90CF900895DF92EF9242
:1003B000FF920F931F93162F682F70E080E090E05C
:1003C0000E94F60F20E030E040E853E40E948410E1
:1003D000D62EE72EF82E092F612F70E0882777FDA3
:1003E0008095982F0E94F80F9B01AC016D2D7E2DFA
:1003F0008F2D902F0E942A0F20E030E040E251E440
:100400000E948E0F1F910F91FF90EF90DF90089543
:100410002F923F924F925F926F927F928F929F9214
:10042000AF92BF92CF92DF92EF92FF920F931F9302
:10043000DF93CF93CDB7DEB7C258D0400FB6F89454
:10044000DEBF0FBECDBF80E5898384E58A8383E468
:1004500095E00E94200C4E010894811C911C63E0E1
:10046000E62EF12CEC0EFD1EC701BE2CC92E50E16C
:10047000252E51E0352E2DC12DB73EB728503040E6
:100480000FB6F8943EBF0FBE2DBFEDB7FEB7319645
:10049000ADB7BEB71196BC9211971296CC9233822B
:1004A000228215821482178306830E940F11EDB7F2
:1004B000FEB738960FB6F894FEBF0FBEEDBFC7016A
:1004C0000E949300D401DC908D2D90E0B8010E9431
:1004D000AF00A82EB8016F5F7F4F8D2D90E00E9476
:1004E000AF00682F8BED94E04AE050E00E94880B4B
:1004F0008AE191E00E9493008BED94E06A2D4AE03E
:1005000050E00E94880BB8016E5F7F4F8D2D90E008
:100510000E94AF00A82EB8016D5F7F4F8D2D90E037
:100520000E94AF00EDB7FEB738970FB6F894FEBF44
:100530000FBEEDBF3196ADB7BEB71196BC92119705
:100540001296CC922CE131E033832283A48215826F
:10055000868317820E940F118DB79EB708960FB63B
:10056000F8949EBF0FBE8DBFC7010E94930044E068
:10057000642E712C600E711E8D2D90E0B3010E94CF
:10058000AF00A82E35E0432E512C400E511E8D2D6C
:1005900090E0B2010E94AF00ADB7BEB718970FB69A
:1005A000F894BEBF0FBEADBFEDB7FEB73196119642
:1005B000BC9211971296CC9228E231E033832283C9
:1005C000A4821582868317820E940F118DB79EB771
:1005D00008960FB6F8949EBF0FBE8DBFC7010E944C
:1005E00093008D2D90E0B3010E94AF00A82E8D2DB9
:1005F00090E0B2010E94AF00682F8A2D0E94930103
:10060000ADB7BEB718970FB6F894BEBF0FBEADBF5B
:10061000EDB7FEB731961196BC9211971296CC9217
:1006200024E331E033832283648375838683978355
:100630000E940F118DB79EB708960FB6F8949EBF13
:100640000FBE8DBFC7010E9493008D2D90E0B301B6
:100650000E94AF00A82E8D2D90E0B2010E94AF0045
:10066000682F8A2D0E94D601ADB7BEB718970FB676
:10067000F894BEBF0FBEADBFEDB7FEB73196119671
:10068000BC9211971296CC922DE331E033832283F2
:1006900064837583868397830E940F118DB79EB7FD
:1006A00008960FB6F8949EBF0FBE8DBFC7010E947B
:1006B00093008DE091E00E949300065F1F4F003F82
:1006C000110509F0D9CE0894811C911C8E149F0449
:1006D00019F000E010E0D0CECE57DF4F0FB6F894FF
:1006E000DEBF0FBECDBFCF91DF911F910F91FF9065
:1006F000EF90DF90CF90BF90AF909F908F907F90C2
:100700006F905F904F903F902F9008958091FE03DF
:1007100090E02091FF03DC01A20FB11DA770B07023
:10072000283018F42F5F2093FF034091FF034830D7
:1007300029F40196877090708093FE03E091400445
:10074000F0E093E0EE0FFF1F9A95E1F7E050FC4FC9
:1007500083E0AA0FBB1F8A95E1F7A254BC4F80E04B
:1007600090E021912D93019688309105D1F780E09A
:1007700090E00BC05D9151932F5F3F4F28303105C2
:10078000C9F701968830910571F0FC01A3E0EE0FE6
:10079000FF1FAA95E1F7DF01A254BC4FE050FC4FC8
:1007A00020E030E0E7CF8091FE03840F87708093D4
:1007B000400490E0E3E0880F991FEA95E1F79C017F
:1007C00020503C4F3093420420934104F9011082A1
:1007D000109244041092430487E691E00E94930033
:1007E0000895CF92DF92EF92FF920F931F93DF93C2
:1007F000CF93CDB7DEB7C058D0400FB6F894DEBF68
:100800000FBECDBF2DB73EB7285030400FB6F8947D
:100810003EBF0FBE2DBFEDB7FEB731967E010894E7
:10082000E11CF11CADB7BEB71296FC92EE92119787
:100830008AE691E0938382838091FE03848315820C
:100840008091FF03868317820E940F112DB73EB758
:10085000285F3F4F0FB6F8943EBF0FBE2DBFC701B4
:100860000E9493008FE891E00E94930000E010E066
:1008700067015AE9E52E51E0F52E37C08091FE035D
:100880009801280F311D277030704DB75EB7485062
:1008900050400FB6F8945EBF0FBE4DBFEDB7FEB728
:1008A0003196ADB7BEB71196CC9211971296DC92E5
:1008B000F382E2823583248343E0220F331F4A957B
:1008C000E1F722543C4F378326830E940F112DB746
:1008D0003EB7285F3F4F0FB6F8943EBF0FBE2DBF07
:1008E000C6010E9493000F5F1F4F8091FF0390E0AD
:1008F000081719071CF200D000D000D0EDB7FEB7E2
:100900003196ADB7BEB71196CC9211971296DC9284
:1009100088EA91E0938382838091400484831582E6
:100920000E940F112DB73EB72A5F3F4F0FB6F894C4
:100930003EBF0FBE2DBFC6010E94930000E010E035
:100940007E010894E11CF11C32ECC32E31E0D32E61
:1009500041C08091FE03A801480F511DCA01877054
:1009600090702091400430E08217930719F42AE236
:1009700030E002C020E230E0ADB7BEB71A970FB644
:10098000F894BEBF0FBEADBFEDB7FEB7319612965D
:10099000FC92EE921197D382C2823583248397838F
:1009A000868323E0880F991F2A95E1F780509C4F9A
:1009B000918780870E940F112DB73EB7265F3F4F6A
:1009C0000FB6F8943EBF0FBE2DBFC7010E94930023
:1009D0000F5F1F4F8091FF0390E0081719070CF479
:1009E000B8CF4DB75EB74A5050400FB6F8945EBFCF
:1009F0000FBE4DBFEDB7FEB731968E010F5F1F4F93
:100A0000ADB7BEB712961C930E93119781ED91E08E
:100A1000938382838091430484831582809144046C
:100A20008683178280914104909142049187808748
:100A30000E940F112DB73EB7265F3F4F0FB6F894B7
:100A40003EBF0FBE2DBFC8010E9493004DB75EB7D9
:100A50004E5050400FB6F8945EBF0FBE4DBFEDB77D
:100A6000FEB73196ADB7BEB712961C930E93119791
:100A70008DEE91E093838283809145048483158277
:100A8000809146048683178280914704808711866F
:100A90008091480482871386809149048487158653
:100AA0000E940F112DB73EB7225F3F4F0FB6F8944B
:100AB0003EBF0FBE2DBFC8010E9493008DE091E0A4
:100AC0000E949300C058DF4F0FB6F894DEBF0FBEF0
:100AD000CDBFCF91DF911F910F91FF90EF90DF90ED
:100AE000CF900895CF93DF9380914404882309F435
:100AF00048C089E192E00E94930080914404C82F8D
:100B0000D0E00FC0E0914104F0914204EC0FFD1FD2
:100B1000DF01119780818C9389E192E00E9493001C
:100B2000219620914304822F90E0C817D90754F3EF
:100B3000809144048150E3E4F4E08183E091410436
:100B4000F0914204822F815080934304E80FF11DFD
:100B5000108288E091E00E94930080914304C82FA6
:100B6000D0E005C089E192E00E9493002197809136
:100B7000440490E08C179D07ACF389E192E00E9459
:100B80009300DF91CF9108950F931F93DF93CF933D
:100B90000F92CDB7DEB7898380914304873008F088
:100BA00068C08BED94E0BE016F5F7F4F41E050E085
:100BB0000E94B50A0091440410E00EC06091410407
:100BC00070914204600F711F8BED94E041E050E0A2
:100BD0000E94B50A0F5F1F4F8091430490E00817F1
:100BE000190764F30091440410E006C089E192E023
:100BF0000E9493000F5F1F4F8091430490E00817FD
:100C00001907A4F30BC0E0914104F0914204E80FEE
:100C1000F91FDF0111972C91208301974091440423
:100C2000242F30E02817390774F3E0914104F09144
:100C30004204E20FF31F898180834F5F4093440495
:100C4000E0914104F0914204809143048F5F8093CE
:100C50004304E80FF11D108280914404873049F469
:100C600089E192E00E949300809144048150809336
:100C700044040F90CF91DF911F910F9108958091BF
:100C80004404882339F081508093440489E192E040
:100C90000E94930008958091440490914304891721
:100CA00089F08F5F8093440490E001976091410444
:100CB00070914204680F791F8BED94E041E050E0A1
:100CC0000E94B50A08950F931F93CF93DF938091ED
:100CD0004004C82FD0E02796C770D0708091FF03E2
:100CE000883039F42091FE0330E0C217D30709F4AD
:100CF00056C090E08C179D070CF451C0009144043D
:100D000010E006C088E091E00E9493000F5F1F4F43
:100D10008091430490E008171907A4F300E010E065
:100D200006C08BE192E00E9493000F5F1F4F8091FD
:100D3000430490E008171907A4F3BE01E3E0660F2F
:100D4000771FEA95E1F760507C4F709342046093FF
:100D50004104FB0101900020E9F73197E61BF70BF6
:100D6000E0934304C0934004A3E4B4E01196EC93F1
:100D70001197EE2321F08BED94E00E94F80A809108
:100D80004404C82FD0E005C089E192E00E9493009E
:100D900021968091430490E0C817D907ACF3DF9106
:100DA000CF911F910F9108950F931F93CF93DF93CE
:100DB00080914004C82FD0E02196C770D070209158
:100DC000FE038091FF0390E0820F911D01968770D2
:100DD0009070C817D90709F451C00091440410E07D
:100DE00006C088E091E00E9493000F5F1F4F809142
:100DF000430490E008171907A4F300E010E006C0D0
:100E00008BE192E00E9493000F5F1F4F809143049B
:100E100090E008171907A4F3BE01F3E0660F771FEF
:100E2000FA95E1F760507C4F70934204609341045F
:100E3000FB0101900020E9F73197E61BF70BE093E7
:100E40004304C0934004A3E4B4E01196EC931197DB
:100E5000EE2321F08BED94E00E94F80A8091440487
:100E6000C82FD0E005C089E192E00E94930021964E
:100E70008091430490E0C817D907ACF3DF91CF917C
:100E80001F910F9108951092FF0380E094E09093DA
:100E900042048093410408958BED94E040E855E2CC
:100EA00060E070E00E94F50987E691E00E949300FF
:100EB0000E94430708958FE192E00E94930086E22A
:100EC00092E00E94930085E392E00E94930088E400
:100ED00092E00E94930084E692E00E94930088E7EB
:100EE00092E00E94930088E892E00E94930088E9D3
:100EF00092E00E94930085EA92E00E94930081EBC9
:100F000092E00E9493008BED92E00E94930008957E
:100F1000CF93DF93EC018DE091E00E9493008881F4
:100F2000803719F48DEF92E00EC0853619F40E94D7
:100F3000E30030C0853419F40E9408022BC08737C3
:100F400029F48BE193E00E94930024C0843619F4C5
:100F50008AE393E0F8CF833719F485E593E0F3CF84
:100F6000823519F480E793E0EECF863719F40E94BA
:100F7000F10310C0882371F08D3061F08A3051F098
:100F8000883631F08F3321F088E893E00E94930097
:100F90000E945B07DF91CF91089590914904E92F5A
:100FA000F0E0EA5BFB4F80839F5F909349049330AE
:100FB000E9F4809147048B35A9F480914804813489
:100FC00019F40E9463060EC0823419F40E94D406FC
:100FD00009C0833419F40E944B0604C0843411F410
:100FE0000E943F06109245041092490408958E37DE
:100FF00039F48DE091E00E9493000E94F10308957E
:1010000090914504992319F00E94CD0708958B31E2
:1010100071F491E09093450490914904E92FF0E038
:10102000EA5BFB4F80839F5F9093490408958F375D
:1010300019F40E94720508958D3049F4809141049D
:10104000909142040E9488070E948603089590911F
:101050004304973011F00E94C405089506C08BED3B
:1010600094E00E94FE080E94F7078BED94E00E9436
:10107000CF08181619069CF30895CF93DF930E94AA
:1010800094080E944C07C1EBD9E00E942E082097DB
:10109000E1F30E94B109F9CF1F920F920FB60F92A0
:1010A00011242F933F938F939F93AF93BF9380917E
:1010B0004E0490914F04A0915004B091510430918E
:1010C00052040196A11DB11D232F2D5F2D3720F055
:1010D0002D570196A11DB11D2093520480934E04FB
:1010E00090934F04A0935004B093510480914A040C
:1010F00090914B04A0914C04B0914D040196A11D18
:10110000B11D80934A0490934B04A0934C04B09378
:101110004D04BF91AF919F918F913F912F910F906F
:101120000FBE0F901F901895789484B5826084BD8F
:1011300084B5816084BD85B5826085BD85B58160DB
:1011400085BDEEE6F0E0808181608083E1E8F0E03B
:101150001082808182608083808181608083E0E86A
:10116000F0E0808181608083E1EBF0E08081846049
:101170008083E0EBF0E0808181608083EAE7F0E04B
:1011800080818460808380818260808380818160AF
:1011900080838081806880831092C1000895FC0163
:1011A00084859585FC01E05CFF4F208131818E5B59
:1011B0009F4FFC0180819181281B390B2F73307068
:1011C000C9010895FC0184859585FC01E05CFF4F11
:1011D00040815181FC01EE5BFF4F2081318142173C
:1011E000530741F00190F081E02DE80FF91F2081B5
:1011F00030E002C02FEF3FEFC9010895FC01848564
:101200009585FC01E05CFF4F40815181FC01EE5B64
:10121000FF4F208131814217530771F0A081B181C6
:10122000A80FB91F2C918081918101968F739070C6
:101230009183808330E002C02FEF3FEFC901089512
:10124000FC0181A1882329F0A489B5898C9186FFAE
:10125000FBCF11A20895FC0126853785D901A05C3A
:10126000BF4F8D919C9101968F739070D901AE5BA9
:10127000BF4F4D915C91119784179507D1F3D90118
:10128000A05CBF4F0D90BC91A02DA20FB31F6C931B
:10129000A685B785A05CBF4F11969C938E93A689B7
:1012A000B7892C9181E090E0078C02C0880F991FCC
:1012B0000A94E2F7282B2C9381E081A30488F58916
:1012C000E02D80818064808381E090E00895FB01BF
:1012D000E05CFF4F208131812F5F3F4F2F733070D3
:1012E000DB01AE5BBF4F4D915C9111972417350721
:1012F00039F0A081B181A60FB71F8C933183208371
:10130000089508951F920F920FB60F9211242F93F4
:101310003F934F935F936F937F938F939F93AF937D
:10132000BF93EF93FF938091C00082FD07C080912F
:10133000C60063E574E00E94670902C08091C600A0
:10134000FF91EF91BF91AF919F918F917F916F919D
:101350005F914F913F912F910F900FBE0F901F9073
:1013600018958BED94E00E94CF08009711F00E9431
:10137000810908951F920F920FB60F9211242F9397
:101380003F938F939F93EF93FF932091D7043091D6
:10139000D8048091D9049091DA042817390731F4E0
:1013A0008091C1008F7D8093C10014C0E091D90469
:1013B000F091DA04E956FB4F20818091D904909195
:1013C000DA0401968F7390709093DA048093D904B5
:1013D0002093C600FF91EF919F918F913F912F91A4
:1013E0000F900FBE0F901F901895DF92EF92FF9213
:1013F0000F931F93CF93DF93EC017A018B01DD24D0
:10140000D394403081EE580780E0680780E0780789
:1014100049F4DD24EC89FD89108260E874E88EE1EE
:1014200090E00FC0EC89FD8981E090E008A002C047
:10143000880F991F0A94E2F7808360E079E08DE3DA
:1014400090E0A80197010E94E710215030404040F1
:101450005040569547953795279580E120303807BD
:1014600010F0DD20B1F6E889F9893083EA89FB893B
:10147000208319A2EE89FF89408181E090E09C01E0
:101480000C8C02C0220F331F0A94E2F7422B4083D8
:10149000EE89FF8940819C010D8C02C0220F331F11
:1014A0000A94E2F7422B4083EE89FF8940819C0138
:1014B0000E8C02C0220F331F0A94E2F7422B4083A6
:1014C000EE89FF8920810F8C02C0880F991F0A9432
:1014D000E2F7809582238083DF91CF911F910F9156
:1014E000FF90EF90DF9008951092DE041092DD04DB
:1014F00088EE93E0A0E0B0E08093DF049093E004F6
:10150000A093E104B093E204EDEDF4E08EE993E002
:101510009293829383E594E09587848787E994E0AA
:101520009787868785EC90E0918B808B84EC90E0A8
:10153000938B828B80EC90E0958B848B81EC90E098
:10154000978B868B82EC90E0918F808F86EC90E079
:10155000938F828F84E0848F83E0858F87E0868FEE
:1015600085E0878F81E080A30895CF92DF92EF928C
:10157000FF920F931F93CF93DF936C017B018A013E
:10158000C0E0D0E00FC0D7016D917D01D601ED9193
:10159000FC910190F081E02DC6010995C80FD91F7B
:1015A000015010400115110571F7CE01DF91CF9167
:1015B0001F910F91FF90EF90DF90CF9008956115EC
:1015C000710591F0DB010D900020E9F7AD0141506C
:1015D0005040461B570BDC01ED91FC910280F381DA
:1015E000E02D09959C0102C020E030E0C90108957A
:1015F0000E94DF0A0895DC01ED91FC910190F081D9
:10160000E02D099508950F931F93CF93DF93EC017D
:101610006DE00E94FB0A8C01CE016AE00E94FB0A89
:10162000080F191FC801DF91CF911F910F910895E5
:101630008F929F92AF92BF92CF92DF92EF92FF92E2
:101640000F931F93DF93CF93CDB7DEB7A1970FB65C
:10165000F894DEBF0FBECDBF6C01042FE52FCB0188
:10166000122F19A2223008F41AE021E2E22EF12C06
:10167000EC0EFD1E812E9924AA24BB2403C0022F48
:10168000E32FCA01602F7E2FA50194010E94E7106D
:10169000129F802D1124081B0894E108F1080A30DC
:1016A00014F4005D01C0095CF701008321153105C8
:1016B0004105510521F7C601B7010E94DF0AA19635
:1016C0000FB6F894DEBF0FBECDBFCF91DF911F9153
:1016D0000F91FF90EF90DF90CF90BF90AF909F90D1
:1016E0008F9008952115310549F4DC01ED91FC91AD
:1016F0000190F081E02D642F099508950E94180B48
:1017000008959A01AB0160E070E00E94720B0895A9
:101710009A01462F50E060E070E00E94720B08953D
:1017200020911E0530E080911D05281B3109C9015B
:10173000089580911D0590911E05891750F4E82F9A
:10174000F0E0E350FB4F208130E08F5F80931D0578
:1017500002C02FEF3FEFC9010895E0911D05809170
:101760001E05E81730F4F0E0E350FB4F208130E035
:1017700002C02FEF3FEFC90108950895CF92DF9285
:10178000EF92FF920F931F93CF93DF936C01CB01E6
:10179000EA01209142052223B1F0E62EF92E00E065
:1017A00010E00DC0D7016D917D01D601ED91FC9146
:1017B0000190F081E02DC60109950F5F1F4F0C17B6
:1017C0001D0780F303C0642F0E94320DCE01DF910C
:1017D000CF911F910F91FF90EF90DF90CF900895E0
:1017E000DF93CF930F92CDB7DEB769832091420587
:1017F0002223D1F020914105203240F021E030E059
:10180000FC013383228320E030E015C08091400545
:10181000E82FF0E0E05EFA4F998190838F5F80932C
:1018200040058093410505C0CE01019661E00E940C
:10183000320D21E030E0C9010F90CF91DF91089582
:1018400010921D0510921E05109240051092410540
:101850000E94770C0895862F413208F040E26DEF28
:1018600074E00E94950C10921D0580931E0508954A
:1018700021E00E942B0C089581E080934205609343
:101880001F05109240051092410508950E943C0CDE
:1018900008950F93062F80911F0560E275E0409137
:1018A000410521E00E94DE0C109240051092410596
:1018B000109242050F91089561E00E94490C08952D
:1018C000109246051092450588EE93E0A0E0B0E046
:1018D0008093470590934805A0934905B0934A0526
:1018E0008EEA93E090934405809343050895109207
:1018F000740581E0809372051092730582E161E0C6
:101900000E94F10E83E161E00E94F10EE9EBF0E04C
:1019100080818E7F808380818D7F808388E4809327
:10192000B80085E48093BC000895413208F043C0BC
:10193000909174059923E1F791E0909374052093B9
:1019400072052FEF2093750510925005242F21501A
:101950002093510590934F0590914F05880F892B47
:1019600080934F0580917305813041F41092730587
:1019700080914F058093BB0085EC01C085EE80937C
:10198000BC00809174058130E1F38091500584178B
:1019900010F440915005E2E5F5E0262F372FD901EC
:1019A000242F30E02E0F3F1F02C081918D93E2174C
:1019B000F307D9F701C040E0842F08950F93413217
:1019C00008F047C0909174059923E1F792E0909355
:1019D0007405009372059FEF909375051092500562
:1019E00040935105DB01E2E5F5E050E04E0F5F1F4B
:1019F00002C09D919193E417F507D9F710924F0516
:101A000090914F05880F892B80934F058091730526
:101A1000813041F41092730580914F058093BB0093
:101A200085EC01C085EE8093BC00222321F08091DB
:101A300074058230E1F3809175058F3F61F08091EC
:101A40007505803251F080917505803341F483E053
:101A500007C081E005C080E003C082E001C084E0EF
:101A60000F9108956132A0F420917405243091F40F
:101A700060939A05DC01EDE9F5E070E06E0F7F1FE1
:101A800002C08D918193E617F707D9F780E008959A
:101A900081E0089582E00895882311F085EC01C06B
:101AA00085E88093BC00089585ED8093BC0080910B
:101AB000BC0084FDFCCF10927405089585EC8093E2
:101AC000BC001092740508951F920F920FB60F92EA
:101AD00011242F933F934F935F936F937F938F9333
:101AE0009F93AF93BF93EF93FF938091B90090E0E2
:101AF000887F90708036910509F4CCC081369105BD
:101B0000E4F58832910509F47EC089329105C4F468
:101B10008031910509F472C08131910544F4009738
:101B200009F41DC18830910509F01DC167C08831D5
:101B3000910509F468C08032910509F014C177C09D
:101B40008034910509F489C0813491054CF48033C7
:101B5000910509F46EC08833910509F004C16DC088
:101B60008035910509F46DC08835910509F47AC076
:101B70008834910509F0F7C0F4C08839910509F45B
:101B8000E4C089399105ECF48837910509F482C0E5
:101B9000893791054CF48836910509F47BC080376C
:101BA000910509F0E0C076C08838910509F4CDC0F0
:101BB0008039910509F474C08038910509F0D3C0CB
:101BC0006FC0803B910509F498C0813B91054CF4AE
:101BD000803A910509F476C0883A910509F0C3C0AE
:101BE0008CC0803C910509F4B4C0883C910509F48F
:101BF000B0C0883B910509F0B6C094C080914F05F4
:101C00008093BB0012C090915005809151059817A8
:101C1000A8F580915005E82FF0E0EE5AFA4F908138
:101C20009093BB008F5F8093500581E08FC080E26E
:101C300001C080E38093750594C088E380937505A7
:101C400059C0809150059091BB00E82FF0E0EE5A0A
:101C5000FA4F90838F5F809350059091500580914B
:101C6000510570C0809150059091BB00E82FF0E0C5
:101C7000EE5AFA4F90838F5F8093500580917205E2
:101C8000882309F06EC081E08093730584EA809315
:101C9000BC0062C083E08093740510927605C5CFC6
:101CA00080917605803208F050C080917605909141
:101CB000BB00E82FF0E0E958FA4F90838F5F8093E4
:101CC0007605B3CF80917605803230F4E0917605C9
:101CD000F0E0E958FA4F10820E94540D60917605A9
:101CE000E0919705F091980587E795E070E00995F8
:101CF000109276050E945E0D36C084E080937405D4
:101D00001092990510929A05E0919B05F0919C051F
:101D1000099580919A05882329F481E080939A059A
:101D200010929D0580919905E82FF0E0E356FA4F57
:101D300090819093BB008F5F809399059091990556
:101D400080919A05981708F470CF80E00E944C0D9E
:101D50000AC081E00E944C0D1092740504C01092DC
:101D600075050E94540DFF91EF91BF91AF919F9126
:101D70008F917F916F915F914F913F912F910F9034
:101D80000FBE0F901F901895833071F0843028F4A7
:101D90008130A1F0823021F514C08630B1F0873057
:101DA000D1F08430E9F404C0809180008F7703C0C3
:101DB000809180008F7D80938000089584B58F7717
:101DC00002C084B58F7D84BD08958091B0008F7767
:101DD0008093B00008958091B0008F7D8093B00013
:101DE00008950F931F93DF93CF930F92CDB7DEB774
:101DF000282F30E0F901E255FF4F8491F901E656B2
:101E0000FF4F14912A573F4FF90104910023D9F055
:101E1000882321F069830E94C40E6981E02FF0E0DD
:101E2000EE0FFF1FEE58FF4F85919491DC019FB795
:101E3000F894662321F48C911095812302C08C9133
:101E4000812B8C939FBF0F90CF91DF911F910F91AA
:101E500008955058BB27AA270ED01CC10DD130F0D1
:101E600012D120F031F49F3F11F41EF402C10EF4A0
:101E7000E095E7FBF8C0E92F1ED180F3BA1762079F
:101E800073078407950718F071F49EF536C10EF4B8
:101E9000E0950B2EBA2FA02D0B01B90190010C017A
:101EA000CA01A0011124FF27591B99F0593F50F492
:101EB000503E68F11A16F040A22F232F342F4427EA
:101EC000585FF3CF469537952795A795F0405395E2
:101ED000C9F77EF41F16BA0B620B730B840BBAF0B2
:101EE0009150A1F0FF0FBB1F661F771F881FC2F71D
:101EF0000EC0BA0F621F731F841F48F48795779531
:101F00006795B795F7959E3F08F0B3CF9395880FE7
:101F100008F09927EE0F9795879508950CD0BAC0D1
:101F2000B2D040F0A9D030F021F45F3F19F09BC04F
:101F30005111E4C09EC0BFD098F39923C9F3552333
:101F4000B1F3951B550BBB27AA27621773078407AC
:101F500038F09F5F5F4F220F331F441FAA1FA9F362
:101F600033D00E2E3AF0E0E830D091505040E69554
:101F7000001CCAF729D0FE2F27D0660F771F881FB5
:101F8000BB1F261737074807AB07B0E809F0BB0BA4
:101F9000802DBF01FF2793585F4F2AF09E3F5105C8
:101FA00068F061C0ABC05F3FECF3983EDCF3869510
:101FB00077956795B795F7959F5FC9F7880F911D3E
:101FC0009695879597F90895E1E0660F771F881F2A
:101FD000BB1F621773078407BA0720F0621B730BDD
:101FE000840BBA0BEE1F88F7E0950895E89409C0BA
:101FF00097FB3EF490958095709561957F4F8F4F3C
:102000009F4F9923A9F0F92F96E9BB279395F69551
:10201000879577956795B795F111F8CFFAF4BB0FCF
:1020200011F460FF1BC06F5F7F4F8F4F9F4F16C033
:10203000882311F096E911C0772321F09EE8872FBD
:10204000762F05C0662371F096E8862F70E060E079
:102050002AF09A95660F771F881FDAF7880F9695F2
:10206000879597F9089597F99F6780E870E060E099
:1020700008959FEF80EC089500240A941616170621
:1020800018060906089500240A9412161306140669
:1020900005060895092E0394000C11F4882352F0CC
:1020A000BB0F40F4BF2B11F460FF04C06F5F7F4F84
:1020B0008F4F9F4F089557FD9058440F551F59F06B
:1020C0005F3F71F04795880F97FB991F61F09F3F25
:1020D00079F087950895121613061406551FF2CF4E
:1020E0004695F1DF08C0161617061806991FF1CF9E
:1020F00086957105610508940895E894BB276627C5
:102100007727CB0197F908950BD0C4CFB5DF28F01E
:10211000BADF18F0952309F0A6CFABCF1124EECF8C
:10212000CADFA0F3959FD1F3950F50E0551F629F32
:10213000F001729FBB27F00DB11D639FAA27F00D20
:10214000B11DAA1F649F6627B00DA11D661F829F47
:102150002227B00DA11D621F739FB00DA11D621F2C
:10216000839FA00D611D221F749F3327A00D611D49
:10217000231F849F600D211D822F762F6A2F11242B
:102180009F5750408AF0E1F088234AF0EE0FFF1F7E
:10219000BB1F661F771F881F91505040A9F79E3FB5
:1021A000510570F060CFAACF5F3FECF3983EDCF3AF
:1021B000869577956795B795F795E7959F5FC1F7F2
:1021C000FE2B880F911D9695879597F90895A1E2AA
:1021D0001A2EAA1BBB1BFD010DC0AA1FBB1FEE1FA1
:1021E000FF1FA217B307E407F50720F0A21BB30BEC
:1021F000E40BF50B661F771F881F991F1A9469F768
:1022000060957095809590959B01AC01BD01CF01C3
:102210000895EE0FFF1F0590F491E02D0994AEE0B4
:10222000B0E0E5E1F1E10C94C7130D891E8986E069
:102230008C831A8309838FEF9FE79E838D839E0192
:10224000275E3F4FCE0101966F89788DA9010E94CC
:102250003211EF81F885E00FF11F10822E96E4E035
:102260000C94E313ACE0B0E0E8E3F1E10C94B913B3
:102270006C011B018A01FC0117821682838181FF98
:10228000D1C12E010894411C511CF6019381F1012A
:1022900093FD859193FF81911F01882309F4BEC1AD
:1022A000853239F493FD859193FF81911F01853229
:1022B00029F490E0B6010E942F13E7CFEE24FF240B
:1022C00020E02032B0F48B3269F08C3228F4803276
:1022D00051F0833271F40BC08D3239F0803349F400
:1022E00021602CC02260246029C0286027C02061A2
:1022F00025C027FD2CC0382F30533A3098F426FFE4
:1023000008C08E2D880FE82EEE0CEE0CE80EE30EC2
:1023100015C08F2D880FF82EFF0CFF0CF80EF30E52
:1023200020620CC08E3221F426FD78C1206406C0E4
:102330008C3611F4206802C0883649F4F10193FD0F
:10234000859193FF81911F01882309F0BACF982FBF
:102350009554933018F09052933028F40C5F1F4F2F
:10236000FFE3F9830DC0833631F0833771F0833595
:1023700009F060C022C0F801808189830E5F1F4F81
:10238000420171E0A72EB12C16C062E0662E712CBE
:10239000600E711EF8018080918026FF03C06E2DB3
:1023A00070E002C06FEF7FEFC4012C870E942413FE
:1023B0005C0183012C852F7717C052E0652E712CAC
:1023C000600E711EF8018080918026FF03C06E2D83
:1023D00070E002C06FEF7FEFC4012C870E941913D9
:1023E0005C012C852068830123FD20C008C080E2A9
:1023F00090E0B6012C870E942F13FA942C858F2D24
:1024000090E0A816B90698F311C0F40127FD859154
:1024100027FF81914F0190E0B6012C870E942F1376
:102420002C85F110FA940894A108B108A114B10404
:1024300061F7F1C0843611F0893649F527FF08C0ED
:10244000F80160817181828193810C5F1F4F09C007
:10245000F80160817181882777FD8095982F0E5F44
:102460001F4F4FE6B42EB22297FF09C0909580957A
:10247000709561957F4F8F4F9F4FF0E8BF2AA20163
:102480002AE030E00E945B13782E741845C085372F
:1024900031F43FEEB32EB2222AE030E025C099EFAE
:1024A000B92EB2228F36C1F0803720F4883509F07A
:1024B000B5C00DC0803721F0883709F0AFC002C029
:1024C00020E1B22AB4FE0BC084E0B82A08C0B4FEF2
:1024D00009C0E6E0BE2A06C028E030E005C020E1E1
:1024E00030E002C020E132E0B7FE08C0F8016081B0
:1024F0007181828193810C5F1F4F07C0F801608159
:10250000718180E090E00E5F1F4FA2010E945B137B
:10251000782E7418FFE7BF22B6FE0BC02EEFB22252
:102520007E1438F4B4FE07C0B2FC05C08FEEB822AA
:1025300002C0A72C01C0AE2C8B2D90E0B4FE0DC0C4
:10254000FE01E70DF11D2081203319F4E9EEBE22D2
:1025500009C0A394B2FE06C004C0867890700097AC
:1025600009F0A3948B2C9924B3FC14C0B0FE0FC0C7
:10257000AF1428F4E72CEF0CEA18AF2C08C0E72CB6
:1025800006C080E290E0B6010E942F13A394AF141E
:10259000C0F304C0AF1410F4FA1801C0FF2484FE85
:1025A0000FC080E390E0B6010E942F1382FE1FC08F
:1025B00081FE03C088E590E010C088E790E00DC080
:1025C000C40186789070009791F081FC02C080E28F
:1025D00001C08BE2B7FC8DE290E0B6010E942F13A0
:1025E00006C080E390E0B6010E942F13EA947E14A7
:1025F000C0F37A94F201E70DF11D808190E0B601FD
:102600000E942F137720A9F706C080E290E0B60160
:102610000E942F13FA94FF20C1F737CEF6012681CE
:10262000378102C02FEF3FEFC9012C96E2E10C94F5
:10263000D513FC010590615070400110D8F78095CA
:1026400090958E0F9F1F0895FC016150704001907E
:102650000110D8F7809590958E0F9F1F08950F93C6
:102660001F93CF93DF938C01EB018B8181FF1BC004
:1026700082FF0DC02E813F818C819D8128173907F3
:1026800064F4E881F9810193F983E88306C0E88561
:10269000F985802F0995009731F48E819F810196ED
:1026A0009F838E8302C00FEF1FEFC801DF91CF9190
:1026B0001F910F910895FA01AA27283051F1203176
:1026C00081F1E8946F936E7F6E5F7F4F8F4F9F4FC6
:1026D000AF4FB1E03ED0B4E03CD0670F781F891F08
:1026E0009A1FA11D680F791F8A1F911DA11D6A0FD6
:1026F000711D811D911DA11D20D009F468943F9189
:102700002AE0269F11243019305D3193DEF6CF0187
:102710000895462F4770405D4193B3E00FD0C9F74D
:10272000F6CF462F4F70405D4A3318F0495D31FDBA
:102730004052419302D0A9F7EACFB4E0A69597950D
:10274000879577956795BA95C9F7009761057105E3
:1027500008959B01AC010A2E06945795479537952D
:102760002795BA95C9F7620F731F841F951FA01D87
:1027700008952F923F924F925F926F927F928F9225
:102780009F92AF92BF92CF92DF92EF92FF920F9300
:102790001F93CF93DF93CDB7DEB7CA1BDB0B0FB60A
:1027A000F894DEBF0FBECDBF09942A8839884888C7
:1027B0005F846E847D848C849B84AA84B984C8845D
:1027C000DF80EE80FD800C811B81AA81B981CE0F54
:1027D000D11D0FB6F894DEBF0FBECDBFED01089539
:0427E000F894FFCF9B
:1027E4005B005D200030780020002020000D0A00EE
:1027F4005B25783A2534785D20003A002050415218
:102804002825782C25782900204341502825782C28
:10281400257829002054282566204329002048755E
:102824006D28256629000A0D007365745F72746350
:102834005F64617465206E6F7420696D706C656D82
:102844006E7465640D0A00242000636D6420686959
:1028540073746F72795F73746172742025692C20AC
:10286400686973746F72795F6E2025690A0D006858
:102874006973746F72793A0D0A0020205B25695DD3
:1028840020272573270D0A000D0A686973746F7277
:10289400795F7363726174636820282569293A0D2E
:1028A4000A002025635B25695D20272573270D0A0F
:1028B400006275665F6E2025692C206275665F7004
:1028C4006F7320256920272573270D0A00696E5F21
:1028D4006573632025692C206573635F62756628C0
:1028E40025692C25692C256929206573635F627528
:1028F400665F6E2025690A0D00080008200800683C
:10290400656C700A0D00702020202070726F677251
:10291400616D0A0D006520202020726561642065C8
:102924006570726F6D0A0D0045202020207265616C
:102934006420656570726F6D202870726574747997
:10294400290A0D007720202020777269746520659C
:102954006570726F6D0A0D00642020202067657415
:1029640020646174650A0D0073202020207365744F
:1029740020646174650A0D00522020202072657362
:1029840065740A0D00682F3F202068656C700A0D7D
:10299400007E2020202044454255472073686F77ED
:1029A4002063757272656E7420636F6D6D616E6401
:1029B40020686973746F72790A0D007620202020D4
:1029C40044454255472073686F7720636F6D6D618E
:1029D4006E6420686973746F72790A0D0070726F87
:1029E4006772616D20617672206E6F7420696D70FC
:1029F4006C656D656E7465640D0A00777269746543
:102A040020656570726F6D206E6F7420696D706CD7
:102A1400656D656E7465640A0D0067657420646194
:102A24007465206E6F7420696D706C656D656E746D
:102A340065640A0D007365742064617465206E6FAB
:102A44007420696D706C656D656E7465640A0D0043
:102A54007265736574206E6F7420696D706C656D3A
:102A6400656E7465640A0D00696E76616C69642034
:102A7400636F6D6D616E640A0D00000000002B0928
:102A8400B50ACF08FE08E208200900000000F00B98
:0A2A9400BE0B900B990BAD0BBD0BB0
:00000001FF
