:100000000EC028C029C026C025C024C023C022C0DD
:1000100021C020C01FC01EC01DC01CC01BC0112499
:100020001FBECFE5D2E0DEBFCDBF10E0A0E6B0E05E
:10003000E4E0F1E102C005900D92A238B107D9F7D2
:1000400010E0A2E8B0E001C01D92A539B107E1F7C8
:1000500021D556C8D5CFFFCF1F920F920FB60F9262
:1000600011240F900FBE0F901F901895DF93CF9320
:10007000CDB7DEB728970FB6F894DEBF0FBECDBF61
:10008000982F990F99836A83892F81608C838FEFD2
:100090008D83CE01019662E028874F83F6D783EDEA
:1000A00090E30197F1F700C00000CE01049662E0F2
:1000B000ECD783ED90E30197F1F700C000002885AD
:1000C0004F81222361F481E090E002C0880F991FE4
:1000D0004A95E2F780959D8198239D830CC021303D
:1000E00051F481E090E002C0880F991F4A95E2F731
:1000F0002D81282B2D838D818B83CE01019663E08A
:10010000C4D783ED90E30197F1F700C0000081E0D0
:1001100090E028960FB6F894DEBF0FBECDBFCF910A
:10012000DF9108956115710561F498B321E030E025
:1001300002C0220F331F8A95E2F72095292328BB9E
:100140000AC098B321E030E002C0220F331F8A9525
:10015000E2F7922B98BB81E090E00895611571055C
:1001600061F497B321E030E002C0220F331F8A957B
:10017000E2F72095292327BB0AC097B321E030E09E
:1001800002C0220F331F8A95E2F7922B97BB81E0C2
:1001900090E00895AF92BF92CF92DF92EF92FF92DC
:1001A0000F931F93CF93DF93D82EC92EC1E0D0E0D9
:1001B00002C0CC0FDD1F8A95E2F7AA24BB24EE24EF
:1001C000FF2487018D2D9C2D61E070E0C7DF8D2D10
:1001D0009C2D60E070E0A6DF87EA91E60197F1F7D9
:1001E00000C000008D2D9C2D61E070E09BDF87EA50
:1001F00091E60197F1F700C000008D2D9C2D60E085
:1002000070E0ACDF8D2D9C2D60E070E08BDF20E096
:1002100030E086B390E08C239D23009731F02F5F70
:100220003F4F95E720333907A1F7442737FD409525
:10023000542FE20EF31E041F151F87EA91E6019763
:10024000F1F700C000000894A11CB11C9AE0A916A7
:10025000B10409F0B7CFC801B7012AE030E040E0AF
:1002600050E02CD7C901DF91CF911F910F91FF90E2
:10027000EF90DF90CF90BF90AF9008956F927F92F4
:100280008F929F92AF92BF92CF92DF92EF92FF92A6
:100290000F931F93CF93DF93EC01379A3C9A3F9AC9
:1002A0003E983B983A98399A389A8AE0C82ED12CD1
:1002B000EE24FF248701CE0161E070E04FDFCE0124
:1002C00060E070E02FDF87EA91E60197F1F700C068
:1002D0000000CE0161E070E025DFE7EAF1E631974A
:1002E000F1F700C00000CE0160E070E037DFCE0122
:1002F00060E070E017DF379A369A3699FECF84B106
:1003000085B1369A3699FECF84B195B1792E66249F
:1003100090E0862997290AC0369A3699FECF84B193
:1003200095B1992E882490E088299929F3E08F3F90
:100330009F0790F7E3EDF0E33197F1F700C000007D
:10034000369A3699FECF24B135B1B32EAA2430E0C7
:100350002A293B29821B930BA0E0B0E0E80EF91E8E
:100360000A1F1B1F379887EA91E60197F1F700C033
:1003700000000894C108D108C114D10409F09BCF32
:10038000C801B7012AE030E040E050E097D6C9014B
:10039000DF91CF911F910F91FF90EF90DF90CF9061
:1003A000BF90AF909F908F907F906F90089581E065
:1003B00090E061E070E0D2DE81E090E061E070E02A
:1003C000B1DE87EA91E60197F1F700C0000081E015
:1003D00090E060E070E0A6DE87EA91E60197F1F731
:1003E00000C00000E9CF6F927F928F929F92AF92F0
:1003F000BF92CF92DF92EF92FF920F931F93CF9312
:10040000DF93D82EC92E379A3C9A3F9A3E983B9854
:100410003A98399A389AC1E0D0E002C0CC0FDD1F7B
:100420008A95E2F7AA24BB24EE24FF2487018D2DB0
:100430009C2D61E070E092DE8D2D9C2D60E070E0DF
:1004400071DE87EA91E60197F1F700C000008D2D7B
:100450009C2D61E070E066DE87EA91E60197F1F796
:1004600000C000008D2D9C2D60E070E077DE8D2DAA
:100470009C2D60E070E056DE379A369A3699FECFB2
:1004800084B185B1369A3699FECF84B195B1792E73
:10049000662490E0862997290AC0369A3699FECFBD
:1004A00084B195B1992E882490E08829992923E078
:1004B0008F3F920790F7379820E030E086B390E0C6
:1004C0008C239D23009731F02F5F3F4F85E720332A
:1004D0003807A1F7442737FD4095542FE20EF31E4D
:1004E000041F151F87EA91E60197F1F700C000008D
:1004F0000894A11CB11C9AE0A916B10409F097CF89
:10050000C801B7012AE030E040E050E0D7D5C9018A
:10051000DF91CF911F910F91FF90EF90DF90CF90DF
:10052000BF90AF909F908F907F906F900895209193
:10053000900030919100280F311D84EF253238074B
:10054000E8F080918A00813041F480918F008835F5
:1005500071F480E580938F000895882341F48091A1
:100560008F00883521F481E080939200089588E51A
:1005700080938F0010929100109290000895DF9365
:10058000CF9300D000D000D0CDB7DEB790918F00D0
:10059000990F998320919000309191003A832B8399
:1005A0008C832F5F3F4F3093910020939000CE01BA
:1005B000019664E06AD583ED90E30197F1F700C0FE
:1005C000000026960FB6F894DEBF0FBECDBFCF91C8
:1005D000DF910895DF93CF9300D000D000D0CDB746
:1005E000DEB790918F00990F998320919000309100
:1005F00091003A832B838C836D832E5F3F4F309322
:10060000910020939000CE01019665E03ED583EDE8
:1006100090E30197F1F700C0000026960FB6F8941A
:10062000DEBF0FBECDBFCF91DF910895DF93CF9393
:1006300000D000D000D0CDB7DEB720918F00220FC0
:10064000298320919000309191003A832B839C83E1
:100650008D832E5F3F4F3093910020939000CE0109
:10066000019665E012D583ED90E30197F1F700C0A4
:10067000000026960FB6F894DEBF0FBECDBFCF9117
:10068000DF910895AF92BF92CF92DF92EF92FF92E7
:100690000F931F93DF93CF9300D000D000D0CDB73E
:1006A000DEB7D82E092FA62E80918F00880F898360
:1006B00080919000909191009A838B837E010894A1
:1006C000E11CF11CC70163E0E0D483ED90E30197E6
:1006D000F1F700C00000802F0D2D182FBB24B3941C
:1006E000CE2CEF2C14C080918F00880F81608983FD
:1006F000BA828C2D9E2D62E0C8D48A81F801819344
:100700008F0183ED90E30197F1F700C00000802F87
:100710008D198A1540F326960FB6F894DEBF0FBEEA
:10072000CDBFCF91DF911F910F91FF90EF90DF90A0
:10073000CF90BF90AF900895DF93CF93CDB7DEB742
:1007400028970FB6F894DEBF0FBECDBF20918D0065
:100750002F5F20938D0080918E008F5F60918C00C1
:10076000A1D490938E00892F90E00296880F991F54
:10077000880F991F30EA39839A838B832C83809169
:100780008F008D8380919000909191009E838F8344
:10079000CE01019667E079D483ED90E30197F1F7FC
:1007A00000C0000028960FB6F894DEBF0FBECDBF84
:1007B000CF91DF9108954F925F926F927F928F92C7
:1007C0009F92AF92BF92CF92DF92EF92FF920F93E0
:1007D0001F93DF93CF93CDB7DEB727970FB6F8946B
:1007E000DEBF0FBECDBF0FEF1FEF3FEFDD24DA946A
:1007F0002FEFCC24EE2440E0FF245E010894A11CDE
:10080000B11C812C61E0962E49C08F2D90E002969C
:10081000880F991F880F991F9093910080939000E3
:10082000C50164E02E833F834D832CDF59812E81E7
:100830003F814D815E1508F055C060918C0070E0DD
:100840008E2D90E0851B91098617970764F041E093
:100850000AC03A815B8044240C8110E004291529E8
:10086000DF2C252FE52E652F70E080918C00F401A0
:10087000E81BF1096E177F0784F45C1570F04423C0
:1008800059F03A817B8066240C8110E006291729F3
:10089000DF2C252FC52E01C0C52EF394ECE8F0E027
:1008A00080918C00F81608F4B0CF2F3F81F43F3FC1
:1008B00071F4118290E5938390E00296880F991F5E
:1008C000880F991F9583848381E0878310C02093CC
:1008D0008D00D0928E0030938F0010939100009382
:1008E000900005C0442309F4B4CFE52EBCCF279671
:1008F0000FB6F894DEBF0FBECDBFCF91DF911F9131
:100900000F91FF90EF90DF90CF90BF90AF909F90AE
:100910008F907F906F905F904F9008959F92AF92CD
:10092000BF92CF92DF92EF92FF920F931F93DF93CC
:10093000CF93CDB7DEB72E970FB6F894DEBF0FBEBC
:10094000CDBF80EA89831A821B827E010894E11C54
:10095000F11CC70163E099D383ED90E30197F1F7B0
:1009600000C000008E01095F1F4FEFE0CE2ED12C9A
:10097000CC0EDD1E71EA972EBB24B394AE2CEF2C67
:100980009982BA828A2D9E2D62E07FD3E3EDF0E357
:100990003197F1F700C000008A81F80181938F013F
:1009A000EC15FD0569F79F81292F22952F70209363
:1009B0008A009F7090938B00888580938C002F30E5
:1009C00071F49F3061F48F3F51F410928A0083E0FC
:1009D00080938B0088E080938C00B09293002E96D9
:1009E0000FB6F894DEBF0FBECDBFCF91DF911F9140
:1009F0000F91FF90EF90DF90CF90BF90AF909F90BE
:100A00000895CF92DF92EF92FF920F931F93CF93AF
:100A1000DF93182F062FF42EE52E862F8F5F87DDAC
:100A200080919200882381F4802F812BA8DDC7015B
:100A3000C92EE6016E01D82EE60102C089919FDD24
:100A40006E01CF18C016D0F3DF91CF911F910F9197
:100A5000FF90EF90DF90CF9008951F9380E58093F3
:100A60008F00109291001092900083E088DD88E062
:100A700086DD16E080E083DD1150E1F7812F7FDD18
:100A800080E57DDD88E290E0D1DD1F5F1830B1F7B1
:100A90001F9108952F923F924F925F926F927F9293
:100AA0009F92AF92BF92CF92DF92EF92FF920F93FD
:100AB0001F93DF93CF93CDB7DEB7E1970FB6F894CE
:100AC000DEBF0FBECDBF85B7877E806185BF8BB788
:100AD00080628BBFA99A1FD283E090E061E070E052
:100AE0003DDB84E090E061E070E038DB80E58093FE
:100AF0008F00109292001092930010DF5CDE8091C4
:100B00009300882319F0A9DF09DF55DE80E364E054
:100B100040E650E076DF80E065E045E650E071DFDA
:100B200080E064E04BE650E06CDF80E064E040E7AA
:100B300050E067DF86E0FBDC809192008111FFCFFF
:100B400085E01DDD80918A008295807F90918B00E9
:100B5000892B15DD80918C0012DD80918F000FDDD7
:100B6000809190009091910061DD80E16CE045E71B
:100B700050E047DFE1DD85B7806285BF78948895D6
:100B800085B78F7D85BF13DC88E66EE041E021E00C
:100B90006DDA88E66DE047E021E068DA88E66CE02F
:100BA00047E021E063DA88E66BE047E021E05EDAC7
:100BB00001E010E03E010894611C711CB4E04B2E72
:100BC000512C4C0E5D1EA7E02A2E312C2C0E3D1E02
:100BD0009E01205D3F4F39AB28ABF89483E090E055
:100BE00061E070E0BBDA83E090E060E070E09ADA08
:100BF00080ED898381E08A8381ED8C838EEB8D8308
:100C00008FEE8E83C30162E040D283ED90E30197C3
:100C1000F1F700C00000C20162E037D2A3EDB0E3FB
:100C20001197F1F700C000002D8180918B0088237F
:100C300009F46EC18130A1F4222309F469C1203185
:100C400009F466C1203209F463C1203309F460C19C
:100C5000203409F45DC181E090E0203509F522C01F
:100C6000823071F4222309F453C1253109F450C1B3
:100C7000203309F44DC181E090E0253489F412C09D
:100C8000833041F4222309F443C181E090E0203312
:100C900039F408C0843021F481E090E0222311F07F
:100CA00080E090E02FE936E841E0215030404040BC
:100CB000E1F700C00000009709F41CC180ED8983B2
:100CC00082E08A8381ED8C838EEB8D838FEE8E8321
:100CD000C30162E0DAD183ED90E30197F1F700C040
:100CE0000000C20162E0D1D1A3EDB0E31197F1F7AA
:100CF00000C0000083E090E04DDA83E090E073DB19
:100D0000F5E0AF2EB12C992493942FE73AE146E019
:100D1000215030404040E1F700C000007101F10176
:100D2000119248A959A9E417F507D1F7F89484E07E
:100D300090E061E070E012DA84E090E060E070E062
:100D4000F1D9789482E191E00197F1F700C00000B9
:100D5000F89484E090E060E070E000DA78948AE152
:100D600002C0815031F000C0B49BFBCF60E070E066
:100D700002C061E070E083E305C0815019F461E0D6
:100D800070E003C000C0B499F8CFF70187E402C057
:100D9000815021F00000B49BFBCF02C061E070E005
:100DA00080E002C0853629F08F5F0000B499FACF49
:100DB00002C061E070E08193A8A9B9A9EA17FB0716
:100DC00029F7FE0138962FE030E0A0E0B0E0808106
:100DD000873058F0C801022E02C0880F991F0A946C
:100DE000E2F7A82BB92B908201C01082215030402D
:100DF00031964FEF2F3F340751F7FE0178964FE0C1
:100E000050E080E090E09C018081873058F0C8017C
:100E1000042E02C0880F991F0A94E2F7282B392B61
:100E2000908201C010824150504031968FEF4F3F69
:100E3000580751F7FE01B89647E050E0EE24808154
:100E4000873050F0C801042E02C0880F991F0A9401
:100E5000E2F7E82A908201C010824150504031965A
:100E60009FEF4F3F590759F7C901CB2E2A2FE92F82
:100E7000F82F97FF04C09F77909581959F4F4E2D37
:100E800050E030E02C0D311D2F0F311D2E0F311D84
:100E900030704217530741F46115710529F49D0123
:100EA0003F7741E050E006C040E050E080E090E055
:100EB00020E030E00894A108B108A114B10421F0A9
:100EC0004130510509F021CF69017C0185E02FDB1C
:100ED00080919200882311F484E251DB809192008A
:100EE000882311F4C701A2DB80919200882311F4BA
:100EF000C6019CDB88E66FE041E020E0B7D885B70B
:100F0000806285BF7894889585B78F7D85BF65CED3
:100F100081E090E0C7CEC09AC29ABA9AB89A8FEF91
:100F20008FB98AE28DB980EF8EB9089580919400CF
:100F300008958EB98BE200C000C000008DB9B29B4D
:100F4000FECF00C000C08DB9769BF5CF00C000C0B9
:100F500000008FB19FEF9FB9B89A0895C29AC29BC3
:100F6000FECF00C000C00000C09800C000C0C29802
:100F7000C09A779905C083E08093940080E008953B
:100F800081E00895C098C29AB29BFECF00C000C015
:100F9000C09A00C000C00000759905C084E080932D
:100FA000940080E0089581E00895CF92DF92EF925F
:100FB000FF920F931F93CF93DF93EC01E62E809166
:100FC0009400982F916090939400988190FD03C0B5
:100FD000836080939400C2DF882309F44BC0FE2C09
:100FE0008E01CC24CA94DD24D39480919400837024
:100FF00049F1C298F80180818FB980EF9ADFB898E3
:101000008EEF97DF9091940080FF06C090FF02C0A2
:1010100081E00FC082E00DC0892F8570843061F4BB
:10102000888181608883D092940098DF8823C9F4F6
:101030008AE0809394001EC00F5F1F4F9E7F9093A5
:10104000940011C0B89880EF74DFF80181938F018C
:10105000FF2DF13011F4CFB801C01FB88EEF69DF5A
:1010600002C0FE2C8E01FA9409F0BFCF8BDF91E015
:10107000882309F490E0892FDF91CF911F910F9180
:10108000FF90EF90DF90CF900895109294008DDF45
:101090000895FC0120812E7F208324E0209394007A
:1010A00084DF0895991B79E004C0991F961708F012
:1010B000961B881F7A95C9F780950895A1E21A2E8C
:1010C000AA1BBB1BFD010DC0AA1FBB1FEE1FFF1FEC
:1010D000A217B307E407F50720F0A21BB30BE40B3C
:1010E000F50B661F771F881F991F1A9469F7609583
:1010F0007095809590959B01AC01BD01CF0108953D
:04110000F894FFCF91
:10110400626F6F74000054656D70000148756D0066
:1011140002504152003139393931323331353935A0
:02112400390090
:00000001FF
