:100000000EC028C028C026C025C024C023C022C0DE
:1000100021C020C01FC01EC01DC01CC01BC0112499
:100020001FBECFE5D2E0DEBFCDBF10E0A0E6B0E05E
:10003000E2E1F3E102C005900D92A637B107D9F7CE
:1000400010E0A6E7B0E001C01D92A938B107E1F7C2
:100050001FD65DC9D5CF1F920F920FB60F921124F4
:100060000F900FBE0F901F901895DF93CF93CDB7D1
:10007000DEB728970FB6F894DEBF0FBECDBF982F1E
:10008000990F99836A83892F81608C838FEF8D8389
:10009000CE01019662E028874F83F5D883ED90E387
:1000A0000197F1F700C00000CE01049662E0EBD8A2
:1000B00083ED90E30197F1F700C0000028854F81A0
:1000C000222361F481E090E002C0880F991F4A95D5
:1000D000E2F780959D8198239D830CC0213051F4D7
:1000E00081E090E002C0880F991F4A95E2F72D81C8
:1000F000282B2D838D818B83CE01019663E0C3D89D
:1001000083ED90E30197F1F700C0000081E090E0FB
:1001100028960FB6F894DEBF0FBECDBFCF91DF910A
:1001200008956115710561F498B321E030E002C0D3
:10013000220F331F8A95E2F72095292328BB0AC096
:1001400098B321E030E002C0220F331F8A95E2F716
:10015000922B98BB81E090E008956115710561F4E0
:1001600097B321E030E002C0220F331F8A95E2F7F7
:100170002095292327BB0AC097B321E030E002C0B5
:10018000220F331F8A95E2F7922B97BB81E090E014
:100190000895AF92BF92CF92DF92EF92FF920F93AA
:1001A0001F93CF93DF93D82EC92EC1E0D0E002C0B9
:1001B000CC0FDD1F8A95E2F7AA24BB24EE24FF248E
:1001C00087018D2D9C2D61E070E0C7DF8D2D9C2D6A
:1001D00060E070E0A6DF87EA91E60197F1F700C0E2
:1001E00000008D2D9C2D61E070E09BDF87EA91E699
:1001F0000197F1F700C000008D2D9C2D60E070E0AC
:10020000ACDF8D2D9C2D60E070E08BDF20E030E0D6
:1002100086B390E08C239D23009731F02F5F3F4FF2
:1002200095E720333907A1F7442737FD4095542F30
:10023000E20EF31E041F151F87EA91E60197F1F7FE
:1002400000C000000894A11CB11C9AE0A916B104DA
:1002500009F0B7CFC801B7012AE030E040E050E034
:1002600034D8C901DF91CF911F910F91FF90EF908A
:10027000DF90CF90BF90AF9008956F927F928F9252
:100280009F92AF92BF92CF92DF92EF92FF920F9325
:100290001F93CF93DF93EC01379A3C9A3F9A3E9895
:1002A0003B983A98399A389A8AE0C82ED12CEE2495
:1002B000FF248701CE0161E070E04FDFCE0160E0F6
:1002C00070E02FDF87EA91E60197F1F700C00000A8
:1002D000CE0161E070E025DFE7EAF1E63197F1F762
:1002E00000C00000CE0160E070E037DFCE0160E0CA
:1002F00070E017DF379A369A3699FECF84B185B110
:10030000369A3699FECF84B195B1792E662490E065
:10031000862997290AC0369A3699FECF84B195B1BD
:10032000992E882490E088299929F3E08F3F9F0730
:1003300090F7E3EDF0E33197F1F700C00000369A53
:100340003699FECF24B135B1B32EAA2430E02A2944
:100350003B29821B930BA0E0B0E0E80EF91E0A1FB8
:100360001B1F379887EA91E60197F1F700C000005C
:100370000894C108D108C114D10409F09BCFC80169
:10038000B7012AE030E040E050E09FD7C901DF919B
:10039000CF911F910F91FF90EF90DF90CF90BF9082
:1003A000AF909F908F907F906F90089581E090E044
:1003B00061E070E0D2DE81E090E061E070E0B1DE0B
:1003C00087EA91E60197F1F700C0000081E090E034
:1003D00060E070E0A6DE87EA91E60197F1F700C0E1
:1003E0000000E9CF81E090E061E070E0B6DE81E0FE
:1003F00090E061E070E095DE87EA91E60197F1F721
:1004000000C0000081E090E060E070E08ADE87EAF2
:1004100091E60197F1F700C00000E9CF6F927F925B
:100420008F929F92AF92BF92CF92DF92EF92FF9204
:100430000F931F93CF93DF93D82EC92E379A3C9AF0
:100440003F9A3E983B983A98399A389AC1E0D0E062
:1004500002C0CC0FDD1F8A95E2F7AA24BB24EE244C
:10046000FF2487018D2D9C2D61E070E076DE8D2DBF
:100470009C2D60E070E055DE87EA91E60197F1F788
:1004800000C000008D2D9C2D61E070E04ADE87EAFF
:1004900091E60197F1F700C000008D2D9C2D60E0E2
:1004A00070E05BDE8D2D9C2D60E070E03ADE379AC7
:1004B000369A3699FECF84B185B1369A3699FECFF9
:1004C00084B195B1792E662490E0862997290AC0D7
:1004D000369A3699FECF84B195B1992E882490E052
:1004E0008829992923E08F3F920790F7379820E0D9
:1004F00030E086B390E08C239D23009731F02F5F8E
:100500003F4F85E720333807A1F7442737FD409553
:10051000542FE20EF31E041F151F87EA91E6019780
:10052000F1F700C000000894A11CB11C9AE0A916C4
:10053000B10409F097CFC801B7012AE030E040E0EC
:1005400050E0C3D6C901DF91CF911F910F91FF9069
:10055000EF90DF90CF90BF90AF909F908F907F9063
:100560006F9008952091840030918500280F311DEF
:1005700084EF2532380748F180917E008130A1F464
:10058000809183008835D1F480E580938300809149
:10059000800090E00296880F991F880F991F909312
:1005A0008500809384000895882341F4809183001E
:1005B000883521F481E080938600089588E5809352
:1005C000830010928500109284000895DF93CF93EA
:1005D00000D000D000D0CDB7DEB790918300990F46
:1005E000998320918400309185003A832B838C83FA
:1005F0002F5F3F4F3093850020938400CE010196FA
:1006000064E041D683ED90E30197F1F700C000006C
:1006100026960FB6F894DEBF0FBECDBFCF91DF9107
:100620000895DF93CF9300D000D000D0CDB7DEB7D0
:1006300090918300990F99832091840030918500D7
:100640003A832B838C836D832E5F3F4F30938500DD
:1006500020938400CE01019665E015D683ED90E3EA
:100660000197F1F700C0000026960FB6F894DEBFA0
:100670000FBECDBFCF91DF910895DF93CF9300D010
:1006800000D000D0CDB7DEB720918300220F2983A0
:1006900020918400309185003A832B839C838D8345
:1006A0002E5F3F4F3093850020938400CE0101964A
:1006B00065E0E9D583ED90E30197F1F700C0000014
:1006C00026960FB6F894DEBF0FBECDBFCF91DF9157
:1006D0000895AF92BF92CF92DF92EF92FF920F9365
:1006E0001F93DF93CF9300D000D000D0CDB7DEB7FB
:1006F000D82E092FA62E80918300880F89838091A0
:100700008400909185009A838B837E010894E11C7C
:10071000F11CC70163E0B7D583ED90E30197F1F7D2
:1007200000C00000802F0D2D182FBB24B394CE2CB9
:10073000EF2C14C080918300880F81608983BA8276
:100740008C2D9E2D62E09FD58A81F80181938F01C7
:1007500083ED90E30197F1F700C00000802F8D1921
:100760008A1540F326960FB6F894DEBF0FBECDBFB4
:10077000CF91DF911F910F91FF90EF90DF90CF907D
:10078000BF90AF900895DF93CF93CDB7DEB7289792
:100790000FB6F894DEBF0FBECDBF209181002F5F52
:1007A00020938100809182008F5F6091800081D5CD
:1007B00090938200892F90E00296880F991F880FEE
:1007C000991F30EA39839A838B832C83809183002D
:1007D0008D8380918400909185009E838F83CE01CC
:1007E000019667E050D583ED90E30197F1F700C0E3
:1007F000000028960FB6F894DEBF0FBECDBFCF9194
:10080000DF9108954F925F926F927F928F929F92A5
:10081000AF92BF92CF92DF92EF92FF920F931F930E
:10082000DF93CF93CDB7DEB727970FB6F894DEBF2F
:100830000FBECDBF0FEF1FEF3FEFDD24DA942FEF98
:10084000CC24EE2440E0FF245E010894A11CB11CDE
:10085000812C61E0962E49C08F2D90E00296880F82
:10086000991F880F991F9093850080938400C5017C
:1008700064E02E833F834D832CDF59812E813F819D
:100880004D815E1508F055C06091800070E08E2D9E
:1008900090E0851B91098617970764F041E00AC034
:1008A0003A815B8044240C8110E004291529DF2C57
:1008B000252FE52E652F70E080918000F401E81B64
:1008C000F1096E177F0784F45C1570F0442359F02A
:1008D0003A817B8066240C8110E006291729DF2CE1
:1008E000252FC52E01C0C52EF394E0E8F0E08091DD
:1008F0008000F81608F4B0CF2F3F81F43F3F71F429
:10090000118290E5938390E00296880F991F880FDB
:10091000991F9583848381E0878310C02093810091
:10092000D09282003093830010938500009384005E
:1009300005C0442309F4B4CFE52EBCCF27960FB6EB
:10094000F894DEBF0FBECDBFCF91DF911F910F9105
:10095000FF90EF90DF90CF90BF90AF909F908F90DF
:100960007F906F905F904F9008959F92AF92BF924B
:10097000CF92DF92EF92FF920F931F93DF93CF936B
:10098000CDB7DEB72E970FB6F894DEBF0FBECDBF42
:1009900080EA89831A821B827E010894E11CF11C83
:1009A000C70163E070D483ED90E30197F1F700C0D5
:1009B00000008E01095F1F4FEFE0CE2ED12CCC0E30
:1009C000DD1E71EA972EBB24B394AE2CEF2C9982D6
:1009D000BA828A2D9E2D62E056D4E3EDF0E3319782
:1009E000F1F700C000008A81F80181938F01EC15B6
:1009F000FD0569F79F81292F22952F7020937E0096
:100A00009F7090937F008885809380002F3069F4D9
:100A10009F3059F48F3F49F410927E0010927F006E
:100A200088E080938000B09287002E960FB6F894ED
:100A3000DEBF0FBECDBFCF91DF911F910F91FF9011
:100A4000EF90DF90CF90BF90AF909F900895CF929E
:100A5000DF92EF92FF920F931F93CF93DF93182FA4
:100A6000062FF42EE52E862F8F5F7CDD8091860089
:100A7000882381F4802F812BA9DDC701C92EE601CF
:100A80006E01D82EE60102C08991A0DD6E01CF185B
:100A9000C016D0F3DF91CF911F910F91FF90EF908F
:100AA000DF90CF9008951F9380E58093830010928C
:100AB00085001092840080E089DD88E087DD16E003
:100AC00080E084DD1150E1F7812F80DD80E57EDD5F
:100AD00088E290E0D2DD1F5F1830B1F71F910895D2
:100AE0006F927F928F929F92AF92BF92CF92DF923E
:100AF000EF92FF920F931F93DF93CF93CDB7DEB7A3
:100B000060970FB6F894DEBF0FBECDBF8C0180EDAD
:100B100089831A826E010894C11CD11CC60162E04F
:100B2000B2D383ED90E30197F1F700C00000A7E096
:100B3000EA2EF12CEC0EFD1EFEE0AF2EB12CAC0E19
:100B4000BD1EE1ED7E2E7EEB872E6FEE962E6C2C79
:100B5000CD2C79828A829B82862D9C2D62E093D354
:100B6000E3EDF0E33197F1F700C000008A81F7016F
:100B700081937F01EA15FB0561F782E3F801808329
:100B800080E381838D85982F92959F70905D9283ED
:100B90008F70805D83832C85822F90E080719070B0
:100BA00054E0959587955A95E1F7805D8483822F6F
:100BB0008F70805D85832B85822F90E0807390708D
:100BC00044E0959587954A95E1F7805D8683822F6D
:100BD0008F70805D87834985242F30E04F7026FF1A
:100BE00015C0C9018071907034E0959587953A954C
:100BF000E1F76AE055D3840F25FD845F6AE059D39D
:100C0000805DF8018087905D90830CC02073307008
:100C100084E0359527958A95E1F7205DF8012087D6
:100C2000405D41872885822F90E080779070B4E006
:100C300095958795BA95E1F7805DF8018287822FB7
:100C40008F70805D83872F81822F90E080779070F6
:100C5000A4E095958795AA95E1F7805D8487822F1A
:100C60008F70805D858760960FB6F894DEBF0FBEEB
:100C7000CDBFCF91DF911F910F91FF90EF90DF904B
:100C8000CF90BF90AF909F908F907F906F9008957E
:100C90002F923F924F925F926F927F929F92AF926C
:100CA000BF92CF92DF92EF92FF920F931F93DF9349
:100CB000CF93CDB7DEB7EF970FB6F894DEBF0FBE78
:100CC000CDBF85B7877E806185BF8BB780628BBFC4
:100CD000A99A1FD283E090E061E070E03EDA84E000
:100CE00090E061E070E039DA80E580938300109253
:100CF00086001092870039DE85DD80918700882389
:100D000019F0D1DE32DE7EDD80E364E040E650E0C3
:100D10009EDE80E065E045E650E099DE80E064E03C
:100D20004BE650E094DE80E064E040E750E08FDE88
:100D300086E018DC80918600811154DB85E046DC7A
:100D400080917E008295807F90917F00892B3EDC90
:100D5000809180003BDC8091830038DC80918400AE
:100D6000909185008ADC8E01095F1F4FC801B8DEB3
:100D700080E16EE0A8016BDE06DD88E66EE041E012
:100D800021E073D988E66DE047E021E06ED988E67E
:100D90006CE047E021E069D988E66BE047E021E0BC
:100DA00064D901E010E03E010894611C711C94E0DC
:100DB000492E512C4C0E5D1E85E1282E312C2C0E17
:100DC0003D1E9E01225C3F4F3FAF2EAFF89483E063
:100DD00090E061E070E0C1D983E090E060E070E015
:100DE000A0D980ED898381E08A8381ED8C838EEBAD
:100DF0008D838FEE8E83C30162E045D283ED90E355
:100E00000197F1F700C00000C20162E03CD2A3EDFF
:100E1000B0E31197F1F700C000002D8180917F00B1
:100E2000882309F473C18130A1F4222309F46EC12F
:100E3000203109F46BC1203209F468C1203309F470
:100E400065C1203409F462C181E090E0203509F5E4
:100E500022C0823071F4222309F458C1253109F4EB
:100E600055C1203309F452C181E090E0253489F462
:100E700012C0833041F4222309F448C181E090E09C
:100E8000203339F408C0843021F481E090E022233B
:100E900011F080E090E02FE936E841E02150304049
:100EA0004040E1F700C00000009709F421C180ED47
:100EB000898382E08A8381ED8C838EEB8D838FEE34
:100EC0008E83C30162E0DFD183ED90E30197F1F7F8
:100ED00000C00000C20162E0D6D1A3EDB0E31197DB
:100EE000F1F700C0000083E090E053D983E090E088
:100EF00095DAB5E0AB2EB12C992493942FE73AE123
:100F000046E0215030404040E1F700C00000710150
:100F1000F10111924EAD5FADE417F507D1F7F894EA
:100F200084E090E061E070E018D984E090E060E057
:100F300070E0F7D8789482E191E00197F1F700C072
:100F40000000F89484E090E060E070E006D97894C6
:100F50008AE102C0815031F000C0B49BFBCF60E059
:100F600070E002C061E070E083E305C0815019F4D5
:100F700061E070E003C000C0B499F8CFF70187E4E6
:100F800002C0815021F00000B49BFBCF02C061E0A1
:100F900070E080E002C0853629F08F5F0000B499D0
:100FA000FACF02C061E070E08193AEADBFADEA1749
:100FB000FB0729F7FE0176962FE030E0A0E0B0E0D5
:100FC0008081873058F0C801022E02C0880F991F17
:100FD0000A94E2F7A82BB92B908201C0108221500D
:100FE000304031964FEF2F3F340751F7FE01B69650
:100FF0004FE050E080E090E09C018081873058F025
:10100000C801042E02C0880F991F0A94E2F7282B0A
:10101000392B908201C010824150504031968FEFA1
:101020004F3F580751F7FE01F69647E050E0EE2497
:101030008081873050F0C801042E02C0880F991FAC
:101040000A94E2F7E82A908201C010824150504091
:1010500031969FEF4F3F590759F7C901CB2E2A2FE1
:10106000E92FF82F97FF04C09F77909581959F4FA8
:101070004E2D50E030E02C0D311D2F0F311D2E0F65
:10108000311D30704217530741F46115710529F481
:101090009D013F7741E050E006C040E050E080E035
:1010A00090E020E030E00894A108B108A114B10458
:1010B00021F04130510509F021CF69017C0185E023
:1010C00051DA80918600882311F484E27FDA8091DE
:1010D0008600882311F4C701D0DA80918600882326
:1010E00011F4C601CADA80918600882309F44BDB2B
:1010F00088E66FE041E020E0B8D785B7806285BF21
:101100007894889585B78F7D85BF60CE81E090E02B
:10111000C2CEC09AC29ABA9AB89A8FEF8FB98AE2B1
:101120008DB980EF8EB908958091880008958EB9A9
:101130008BE200C000C000008DB9B29BFECF00C0A2
:1011400000C08DB9769BF5CF00C000C000008FB104
:101150009FEF9FB9B89A0895C29AC29BFECF00C074
:1011600000C00000C09800C000C0C298C09A779923
:1011700005C083E08093880080E0089581E00895B1
:10118000C098C29AB29BFECF00C000C0C09A00C0F7
:1011900000C00000759905C084E08093880080E05D
:1011A000089581E00895CF92DF92EF92FF920F931E
:1011B0001F93CF93DF93EC01E62E80918800982F48
:1011C000916090938800988190FD03C08360809324
:1011D0008800C2DF882309F44BC0FE2C8E01CC248A
:1011E000CA94DD24D39480918800837049F1C29819
:1011F000F80180818FB980EF9ADFB8988EEF97DF82
:101200009091880080FF06C090FF02C081E00FC06F
:1012100082E00DC0892F8570843061F488818160FF
:101220008883D092880098DF8823C9F48AE080936D
:1012300088001EC00F5F1F4F9E7F9093880011C0D3
:10124000B89880EF74DFF80181938F01FF2DF130A2
:1012500011F4CFB801C01FB88EEF69DF02C0FE2CB9
:101260008E01FA9409F0BFCF8BDF91E0882309F457
:1012700090E0892FDF91CF911F910F91FF90EF9018
:10128000DF90CF900895109288008DDF0895FC01C3
:1012900020812E7F208324E02093880084DF08951E
:1012A000002480FD060E660F11F08695D1F7802D83
:1012B0000895991B79E004C0991F961708F0961BB2
:1012C000881F7A95C9F780950895A1E21A2EAA1B66
:1012D000BB1BFD010DC0AA1FBB1FEE1FFF1FA217E6
:1012E000B307E407F50720F0A21BB30BE40BF50BE3
:1012F000661F771F881F991F1A9469F7609570956C
:10130000809590959B01AC01BD01CF010895F894A3
:02131000FFCF0D
:10131200626F6F74000054656D70000148756D0056
:06132200025041520000E0
:00000001FF
